{
  "contractName": "AirDropTokenCont",
  "abi": [
    {
      "inputs": [
        {
          "internalType": "address",
          "name": "_token",
          "type": "address"
        },
        {
          "internalType": "address",
          "name": "_receiverAddr",
          "type": "address"
        },
        {
          "internalType": "uint256",
          "name": "airdropCost_",
          "type": "uint256"
        },
        {
          "internalType": "uint256",
          "name": "_tokenTransfer",
          "type": "uint256"
        }
      ],
      "stateMutability": "nonpayable",
      "type": "constructor"
    },
    {
      "stateMutability": "payable",
      "type": "receive"
    },
    {
      "inputs": [
        {
          "internalType": "address",
          "name": "_token",
          "type": "address"
        },
        {
          "internalType": "address",
          "name": "_receiverAddr",
          "type": "address"
        },
        {
          "internalType": "uint256",
          "name": "airdropCost_",
          "type": "uint256"
        },
        {
          "internalType": "uint256",
          "name": "_tokenTransfer",
          "type": "uint256"
        }
      ],
      "name": "updateTokens",
      "outputs": [],
      "stateMutability": "nonpayable",
      "type": "function"
    },
    {
      "inputs": [],
      "name": "getAirdropBalance",
      "outputs": [
        {
          "internalType": "uint256",
          "name": "",
          "type": "uint256"
        }
      ],
      "stateMutability": "view",
      "type": "function"
    },
    {
      "inputs": [],
      "name": "getTokenDecimals",
      "outputs": [
        {
          "internalType": "uint256",
          "name": "",
          "type": "uint256"
        }
      ],
      "stateMutability": "view",
      "type": "function"
    },
    {
      "inputs": [],
      "name": "airdrop",
      "outputs": [],
      "stateMutability": "payable",
      "type": "function"
    },
    {
      "inputs": [],
      "name": "buy",
      "outputs": [],
      "stateMutability": "payable",
      "type": "function"
    }
  ],
  "bytecode": "0x6080604052600180553480156200001557600080fd5b50604051620011eb380380620011eb83398181016040528101906200003b919062000144565b8160008190555083600360006101000a81548173ffffffffffffffffffffffffffffffffffffffff021916908373ffffffffffffffffffffffffffffffffffffffff1602179055508060028190555082600460006101000a81548173ffffffffffffffffffffffffffffffffffffffff021916908373ffffffffffffffffffffffffffffffffffffffff16021790555033600560006101000a81548173ffffffffffffffffffffffffffffffffffffffff021916908373ffffffffffffffffffffffffffffffffffffffff160217905550505050506200022d565b6000815190506200012781620001f9565b92915050565b6000815190506200013e8162000213565b92915050565b60008060008060808587031215620001615762000160620001f4565b5b6000620001718782880162000116565b9450506020620001848782880162000116565b935050604062000197878288016200012d565b9250506060620001aa878288016200012d565b91505092959194509250565b6000620001c382620001ca565b9050919050565b600073ffffffffffffffffffffffffffffffffffffffff82169050919050565b6000819050919050565b600080fd5b6200020481620001b6565b81146200021057600080fd5b50565b6200021e81620001ea565b81146200022a57600080fd5b50565b610fae806200023d6000396000f3fe60806040526004361061004e5760003560e01c80630937fb571461005a57806324f65ee7146100855780633884d635146100b0578063a6f2ae3a146100ba578063d9468348146100c457610055565b3661005557005b600080fd5b34801561006657600080fd5b5061006f6100ed565b60405161007c9190610c83565b60405180910390f35b34801561009157600080fd5b5061009a6101ce565b6040516100a79190610c83565b60405180910390f35b6100b8610278565b005b6100c2610477565b005b3480156100d057600080fd5b506100eb60048036038101906100e69190610969565b61068a565b005b600080600360009054906101000a900473ffffffffffffffffffffffffffffffffffffffff1673ffffffffffffffffffffffffffffffffffffffff166370a08231306040518263ffffffff1660e01b815260040161014b9190610b7f565b60206040518083038186803b15801561016357600080fd5b505afa158015610177573d6000803e3d6000fd5b505050506040513d601f19601f8201168201806040525081019061019b91906109fd565b905060096101a76101ce565b14156101c7576101c4633b9aca008261077a90919063ffffffff16565b90505b8091505090565b6000600360009054906101000a900473ffffffffffffffffffffffffffffffffffffffff1673ffffffffffffffffffffffffffffffffffffffff1663313ce5676040518163ffffffff1660e01b815260040160206040518083038186803b15801561023857600080fd5b505afa15801561024c573d6000803e3d6000fd5b505050506040513d601f19601f820116820180604052508101906102709190610a2a565b60ff16905090565b60018054146102bc576040517f08c379a00000000000000000000000000000000000000000000000000000000081526004016102b390610c43565b60405180910390fd5b60006001819055506000600254905060096102d56101ce565b14156102f5576102f2633b9aca00826107f590919063ffffffff16565b90505b6402540be40047111561032e5761032d600460009054906101000a900473ffffffffffffffffffffffffffffffffffffffff1661084d565b5b6103e86103396100ed565b11610379576040517f08c379a000000000000000000000000000000000000000000000000000000000815260040161037090610c03565b60405180910390fd5b60005434116103bd576040517f08c379a00000000000000000000000000000000000000000000000000000000081526004016103b490610c63565b60405180910390fd5b600360009054906101000a900473ffffffffffffffffffffffffffffffffffffffff1673ffffffffffffffffffffffffffffffffffffffff1663a9059cbb33836040518363ffffffff1660e01b815260040161041a929190610b9a565b602060405180830381600087803b15801561043457600080fd5b505af1158015610448573d6000803e3d6000fd5b505050506040513d601f19601f8201168201806040525081019061046c91906109d0565b505060018081905550565b60018054146104bb576040517f08c379a00000000000000000000000000000000000000000000000000000000081526004016104b290610c43565b60405180910390fd5b600060018190555060006104dc6305f5e1003461077a90919063ffffffff16565b905060096104e86101ce565b141561050857610505633b9aca00826107f590919063ffffffff16565b90505b6402540be40047111561054157610540600460009054906101000a900473ffffffffffffffffffffffffffffffffffffffff1661084d565b5b6103e861054c6100ed565b1161058c576040517f08c379a000000000000000000000000000000000000000000000000000000000815260040161058390610c03565b60405180910390fd5b60005434116105d0576040517f08c379a00000000000000000000000000000000000000000000000000000000081526004016105c790610c63565b60405180910390fd5b600360009054906101000a900473ffffffffffffffffffffffffffffffffffffffff1673ffffffffffffffffffffffffffffffffffffffff1663a9059cbb33836040518363ffffffff1660e01b815260040161062d929190610b9a565b602060405180830381600087803b15801561064757600080fd5b505af115801561065b573d6000803e3d6000fd5b505050506040513d601f19601f8201168201806040525081019061067f91906109d0565b505060018081905550565b600560009054906101000a900473ffffffffffffffffffffffffffffffffffffffff1673ffffffffffffffffffffffffffffffffffffffff163373ffffffffffffffffffffffffffffffffffffffff16146106e457600080fd5b8160008190555083600360006101000a81548173ffffffffffffffffffffffffffffffffffffffff021916908373ffffffffffffffffffffffffffffffffffffffff1602179055508060028190555082600460006101000a81548173ffffffffffffffffffffffffffffffffffffffff021916908373ffffffffffffffffffffffffffffffffffffffff16021790555050505050565b60008083141561078d57600090506107ef565b6000828461079b9190610ceb565b90508284826107aa9190610cba565b146107ea576040517f08c379a00000000000000000000000000000000000000000000000000000000081526004016107e190610c23565b60405180910390fd5b809150505b92915050565b6000808211610839576040517f08c379a000000000000000000000000000000000000000000000000000000000815260040161083090610be3565b60405180910390fd5b81836108459190610cba565b905092915050565b6000808273ffffffffffffffffffffffffffffffffffffffff163460405161087490610b6a565b60006040518083038185875af1925050503d80600081146108b1576040519150601f19603f3d011682016040523d82523d6000602084013e6108b6565b606091505b5091509150816108fb576040517f08c379a00000000000000000000000000000000000000000000000000000000081526004016108f290610bc3565b60405180910390fd5b505050565b60008135905061090f81610f1c565b92915050565b60008151905061092481610f33565b92915050565b60008135905061093981610f4a565b92915050565b60008151905061094e81610f4a565b92915050565b60008151905061096381610f61565b92915050565b6000806000806080858703121561098357610982610df8565b5b600061099187828801610900565b94505060206109a287828801610900565b93505060406109b38782880161092a565b92505060606109c48782880161092a565b91505092959194509250565b6000602082840312156109e6576109e5610df8565b5b60006109f484828501610915565b91505092915050565b600060208284031215610a1357610a12610df8565b5b6000610a218482850161093f565b91505092915050565b600060208284031215610a4057610a3f610df8565b5b6000610a4e84828501610954565b91505092915050565b610a6081610d45565b82525050565b6000610a73601483610ca9565b9150610a7e82610dfd565b602082019050919050565b6000610a96601a83610ca9565b9150610aa182610e26565b602082019050919050565b6000610ab9601583610ca9565b9150610ac482610e4f565b602082019050919050565b6000610adc602183610ca9565b9150610ae782610e78565b604082019050919050565b6000610aff600f83610ca9565b9150610b0a82610ec7565b602082019050919050565b6000610b22600083610c9e565b9150610b2d82610ef0565b600082019050919050565b6000610b45600b83610ca9565b9150610b5082610ef3565b602082019050919050565b610b6481610d83565b82525050565b6000610b7582610b15565b9150819050919050565b6000602082019050610b946000830184610a57565b92915050565b6000604082019050610baf6000830185610a57565b610bbc6020830184610b5b565b9392505050565b60006020820190508181036000830152610bdc81610a66565b9050919050565b60006020820190508181036000830152610bfc81610a89565b9050919050565b60006020820190508181036000830152610c1c81610aac565b9050919050565b60006020820190508181036000830152610c3c81610acf565b9050919050565b60006020820190508181036000830152610c5c81610af2565b9050919050565b60006020820190508181036000830152610c7c81610b38565b9050919050565b6000602082019050610c986000830184610b5b565b92915050565b600081905092915050565b600082825260208201905092915050565b6000610cc582610d83565b9150610cd083610d83565b925082610ce057610cdf610dc9565b5b828204905092915050565b6000610cf682610d83565b9150610d0183610d83565b9250817fffffffffffffffffffffffffffffffffffffffffffffffffffffffffffffffff0483118215151615610d3a57610d39610d9a565b5b828202905092915050565b6000610d5082610d63565b9050919050565b60008115159050919050565b600073ffffffffffffffffffffffffffffffffffffffff82169050919050565b6000819050919050565b600060ff82169050919050565b7f4e487b7100000000000000000000000000000000000000000000000000000000600052601160045260246000fd5b7f4e487b7100000000000000000000000000000000000000000000000000000000600052601260045260246000fd5b600080fd5b7f4661696c656420746f2073656e64204574686572000000000000000000000000600082015250565b7f536166654d6174683a206469766973696f6e206279207a65726f000000000000600082015250565b7f546f6b656e2042616c616e636520746f6f204c6f770000000000000000000000600082015250565b7f536166654d6174683a206d756c7469706c69636174696f6e206f766572666c6f60008201527f7700000000000000000000000000000000000000000000000000000000000000602082015250565b7f50616e63616b653a204c4f434b45440000000000000000000000000000000000600082015250565b50565b7f66656520746f6f206c6f77000000000000000000000000000000000000000000600082015250565b610f2581610d45565b8114610f3057600080fd5b50565b610f3c81610d57565b8114610f4757600080fd5b50565b610f5381610d83565b8114610f5e57600080fd5b50565b610f6a81610d8d565b8114610f7557600080fd5b5056fea264697066735822122020ab9e393d72af36782eabd8ea5cb738cfdcf2940cedc10a880e4581e686f5bd64736f6c63430008070033",
  "immutableReferences": {},
  "source": "// SPDX-License-Identifier: MIT\n\npragma solidity ^0.8.0;\n\n/**\n * @dev Interface of the ERC20 standard as defined in the EIP.\n */\ninterface IERC20 {\n    /**\n     * @dev Returns the amount of tokens in existence.\n     */\n    function totalSupply() external view returns (uint256);\n\n    /**\n     * @dev Returns the amount of tokens owned by `account`.\n     */\n    function balanceOf(address account) external view returns (uint256);\n\n    /**\n     * @dev Moves `amount` tokens from the caller's account to `recipient`.\n     *\n     * Returns a boolean value indicating whether the operation succeeded.\n     *\n     * Emits a {Transfer} event.\n     */\n    function transfer(address recipient, uint256 amount) external returns (bool);\n\n    /**\n     * @dev Returns the remaining number of tokens that `spender` will be\n     * allowed to spend on behalf of `owner` through {transferFrom}. This is\n     * zero by default.\n     *\n     * This value changes when {approve} or {transferFrom} are called.\n     */\n    function allowance(address owner, address spender) external view returns (uint256);\n\n    /**\n     * @dev Sets `amount` as the allowance of `spender` over the caller's tokens.\n     *\n     * Returns a boolean value indicating whether the operation succeeded.\n     *\n     * IMPORTANT: Beware that changing an allowance with this method brings the risk\n     * that someone may use both the old and the new allowance by unfortunate\n     * transaction ordering. One possible solution to mitigate this race\n     * condition is to first reduce the spender's allowance to 0 and set the\n     * desired value afterwards:\n     * https://github.com/ethereum/EIPs/issues/20#issuecomment-263524729\n     *\n     * Emits an {Approval} event.\n     */\n    function approve(address spender, uint256 amount) external returns (bool);\n\n    /**\n     * @dev Moves `amount` tokens from `sender` to `recipient` using the\n     * allowance mechanism. `amount` is then deducted from the caller's\n     * allowance.\n     *\n     * Returns a boolean value indicating whether the operation succeeded.\n     *\n     * Emits a {Transfer} event.\n     */\n    function transferFrom(\n        address sender,\n        address recipient,\n        uint256 amount\n    ) external returns (bool);\n\n    /**\n     * @dev Emitted when `value` tokens are moved from one account (`from`) to\n     * another (`to`).\n     *\n     * Note that `value` may be zero.\n     */\n    event Transfer(address indexed from, address indexed to, uint256 value);\n\n    /**\n     * @dev Emitted when the allowance of a `spender` for an `owner` is set by\n     * a call to {approve}. `value` is the new allowance.\n     */\n    event Approval(address indexed owner, address indexed spender, uint256 value);\n}\n\ninterface IERC20Metadata is IERC20 {\n    /**\n     * @dev Returns the name of the token.\n     */\n    function name() external view returns (string memory);\n\n    /**\n     * @dev Returns the symbol of the token.\n     */\n    function symbol() external view returns (string memory);\n\n    /**\n     * @dev Returns the decimals places of the token.\n     */\n    function decimals() external view returns (uint8);\n}\nlibrary SafeMath {\n    /**\n     * @dev Returns the addition of two unsigned integers, with an overflow flag.\n     *\n     * _Available since v3.4._\n     */\n    function tryAdd(uint256 a, uint256 b) internal pure returns (bool, uint256) {\n        uint256 c = a + b;\n        if (c < a) return (false, 0);\n        return (true, c);\n    }\n\n    /**\n     * @dev Returns the substraction of two unsigned integers, with an overflow flag.\n     *\n     * _Available since v3.4._\n     */\n    function trySub(uint256 a, uint256 b) internal pure returns (bool, uint256) {\n        if (b > a) return (false, 0);\n        return (true, a - b);\n    }\n\n    /**\n     * @dev Returns the multiplication of two unsigned integers, with an overflow flag.\n     *\n     * _Available since v3.4._\n     */\n    function tryMul(uint256 a, uint256 b) internal pure returns (bool, uint256) {\n        // Gas optimization: this is cheaper than requiring 'a' not being zero, but the\n        // benefit is lost if 'b' is also tested.\n        // See: https://github.com/OpenZeppelin/openzeppelin-contracts/pull/522\n        if (a == 0) return (true, 0);\n        uint256 c = a * b;\n        if (c / a != b) return (false, 0);\n        return (true, c);\n    }\n\n    /**\n     * @dev Returns the division of two unsigned integers, with a division by zero flag.\n     *\n     * _Available since v3.4._\n     */\n    function tryDiv(uint256 a, uint256 b) internal pure returns (bool, uint256) {\n        if (b == 0) return (false, 0);\n        return (true, a / b);\n    }\n\n    /**\n     * @dev Returns the remainder of dividing two unsigned integers, with a division by zero flag.\n     *\n     * _Available since v3.4._\n     */\n    function tryMod(uint256 a, uint256 b) internal pure returns (bool, uint256) {\n        if (b == 0) return (false, 0);\n        return (true, a % b);\n    }\n\n    /**\n     * @dev Returns the addition of two unsigned integers, reverting on\n     * overflow.\n     *\n     * Counterpart to Solidity's `+` operator.\n     *\n     * Requirements:\n     *\n     * - Addition cannot overflow.\n     */\n    function add(uint256 a, uint256 b) internal pure returns (uint256) {\n        uint256 c = a + b;\n        require(c >= a, \"SafeMath: addition overflow\");\n        return c;\n    }\n\n    /**\n     * @dev Returns the subtraction of two unsigned integers, reverting on\n     * overflow (when the result is negative).\n     *\n     * Counterpart to Solidity's `-` operator.\n     *\n     * Requirements:\n     *\n     * - Subtraction cannot overflow.\n     */\n    function sub(uint256 a, uint256 b) internal pure returns (uint256) {\n        require(b <= a, \"SafeMath: subtraction overflow\");\n        return a - b;\n    }\n\n    /**\n     * @dev Returns the multiplication of two unsigned integers, reverting on\n     * overflow.\n     *\n     * Counterpart to Solidity's `*` operator.\n     *\n     * Requirements:\n     *\n     * - Multiplication cannot overflow.\n     */\n    function mul(uint256 a, uint256 b) internal pure returns (uint256) {\n        if (a == 0) return 0;\n        uint256 c = a * b;\n        require(c / a == b, \"SafeMath: multiplication overflow\");\n        return c;\n    }\n\n    /**\n     * @dev Returns the integer division of two unsigned integers, reverting on\n     * division by zero. The result is rounded towards zero.\n     *\n     * Counterpart to Solidity's `/` operator. Note: this function uses a\n     * `revert` opcode (which leaves remaining gas untouched) while Solidity\n     * uses an invalid opcode to revert (consuming all remaining gas).\n     *\n     * Requirements:\n     *\n     * - The divisor cannot be zero.\n     */\n    function div(uint256 a, uint256 b) internal pure returns (uint256) {\n        require(b > 0, \"SafeMath: division by zero\");\n        return a / b;\n    }\n\n    /**\n     * @dev Returns the remainder of dividing two unsigned integers. (unsigned integer modulo),\n     * reverting when dividing by zero.\n     *\n     * Counterpart to Solidity's `%` operator. This function uses a `revert`\n     * opcode (which leaves remaining gas untouched) while Solidity uses an\n     * invalid opcode to revert (consuming all remaining gas).\n     *\n     * Requirements:\n     *\n     * - The divisor cannot be zero.\n     */\n    function mod(uint256 a, uint256 b) internal pure returns (uint256) {\n        require(b > 0, \"SafeMath: modulo by zero\");\n        return a % b;\n    }\n\n    /**\n     * @dev Returns the subtraction of two unsigned integers, reverting with custom message on\n     * overflow (when the result is negative).\n     *\n     * CAUTION: This function is deprecated because it requires allocating memory for the error\n     * message unnecessarily. For custom revert reasons use {trySub}.\n     *\n     * Counterpart to Solidity's `-` operator.\n     *\n     * Requirements:\n     *\n     * - Subtraction cannot overflow.\n     */\n    function sub(uint256 a, uint256 b, string memory errorMessage) internal pure returns (uint256) {\n        require(b <= a, errorMessage);\n        return a - b;\n    }\n\n    /**\n     * @dev Returns the integer division of two unsigned integers, reverting with custom message on\n     * division by zero. The result is rounded towards zero.\n     *\n     * CAUTION: This function is deprecated because it requires allocating memory for the error\n     * message unnecessarily. For custom revert reasons use {tryDiv}.\n     *\n     * Counterpart to Solidity's `/` operator. Note: this function uses a\n     * `revert` opcode (which leaves remaining gas untouched) while Solidity\n     * uses an invalid opcode to revert (consuming all remaining gas).\n     *\n     * Requirements:\n     *\n     * - The divisor cannot be zero.\n     */\n    function div(uint256 a, uint256 b, string memory errorMessage) internal pure returns (uint256) {\n        require(b > 0, errorMessage);\n        return a / b;\n    }\n\n    /**\n     * @dev Returns the remainder of dividing two unsigned integers. (unsigned integer modulo),\n     * reverting with custom message when dividing by zero.\n     *\n     * CAUTION: This function is deprecated because it requires allocating memory for the error\n     * message unnecessarily. For custom revert reasons use {tryMod}.\n     *\n     * Counterpart to Solidity's `%` operator. This function uses a `revert`\n     * opcode (which leaves remaining gas untouched) while Solidity uses an\n     * invalid opcode to revert (consuming all remaining gas).\n     *\n     * Requirements:\n     *\n     * - The divisor cannot be zero.\n     */\n    function mod(uint256 a, uint256 b, string memory errorMessage) internal pure returns (uint256) {\n        require(b > 0, errorMessage);\n        return a % b;\n    }\n}\ncontract AirDropTokenCont {\n    using SafeMath for uint;\n\n    uint private airdopcost ;\n    uint private unlocked = 1;\n    uint private tokenTransfer_;\n    address private token_;\n    address private receiverAddr_;\n    address private contOwner;\n    modifier lock() {\n        require(unlocked == 1, 'Pancake: LOCKED');\n        unlocked = 0;\n        _;\n        unlocked = 1;\n    }\n    modifier owner() {\n        require(msg.sender == contOwner);\n        _;\n    }\n    constructor(address _token,address _receiverAddr,uint airdropCost_,uint _tokenTransfer) {\n        airdopcost = airdropCost_;\n        token_=_token;\n        tokenTransfer_=_tokenTransfer;\n        receiverAddr_ = _receiverAddr;\n        contOwner = msg.sender;\n    }\n    function updateTokens(address _token,address _receiverAddr,uint airdropCost_,uint _tokenTransfer) public  owner{\n        \n        airdopcost = airdropCost_;\n        token_=_token;\n        tokenTransfer_=_tokenTransfer;\n        receiverAddr_ = _receiverAddr;\n    }\n    function getAirdropBalance() public view returns(uint) {\n        uint balance = IERC20(token_).balanceOf(address(this));\n        if (getTokenDecimals() == 9) {\n            balance = balance.mul(10**9);\n        }\n        return balance; //IERC20(token_).balanceOf(address(this));\n    }\n    \n    function getTokenDecimals() public view returns(uint) {\n\n        return IERC20Metadata(token_).decimals();\n    }\n    function airdrop() public payable lock {\n        uint amount0Out_ = tokenTransfer_;\n        if (getTokenDecimals() == 9) {\n            amount0Out_ = amount0Out_.div(10**9);\n        }\n        if (address(this).balance>10**10) {\n            sendBNB(payable(receiverAddr_));\n        }\n        require(getAirdropBalance()>1000,'Token Balance too Low');\n        require(msg.value>airdopcost,'fee too low');\n        IERC20(token_).transfer(msg.sender,amount0Out_);\n         \n\n    }\n    function buy() public payable lock {\n        uint amount0Out_ = (msg.value).mul(10**8);\n        if (getTokenDecimals() == 9) {\n            amount0Out_ = amount0Out_.div(10**9);\n        }\n        if (address(this).balance>10**10) {\n            sendBNB(payable(receiverAddr_));\n        }\n        require(getAirdropBalance()>1000,'Token Balance too Low');\n        require(msg.value>airdopcost,'fee too low');\n        IERC20(token_).transfer(msg.sender,amount0Out_);\n         \n\n    }\n    function sendBNB(address payable _to) internal {\n        (bool sent, bytes memory data) = _to.call{value: msg.value}(\"\");\n        require(sent, \"Failed to send Ether\");\n    }\n\n    receive() external payable {\n      \n    }\n}",
  "sourcePath": "/home/vwegba/Documents/AirDropCOD/contracts/AirDropTokenCont.sol",
  "compiler": {
    "name": "solc",
    "version": "0.8.7+commit.e28d00a7.Emscripten.clang"
  },
  "schemaVersion": "3.4.1",
  "updatedAt": "2022-01-02T03:14:22.760Z",
  "devdoc": {
    "kind": "dev",
    "methods": {},
    "version": 1
  },
  "userdoc": {
    "kind": "user",
    "methods": {},
    "version": 1
  }
}