{
  "contractName": "AirDropReferrel",
  "abi": [
    {
      "inputs": [
        {
          "internalType": "address",
          "name": "_token",
          "type": "address"
        },
        {
          "internalType": "address",
          "name": "_receiverAddr",
          "type": "address"
        },
        {
          "internalType": "uint256",
          "name": "airdropCost_",
          "type": "uint256"
        },
        {
          "internalType": "uint256",
          "name": "_tokenTransfer",
          "type": "uint256"
        }
      ],
      "stateMutability": "nonpayable",
      "type": "constructor"
    },
    {
      "stateMutability": "payable",
      "type": "receive"
    },
    {
      "inputs": [
        {
          "internalType": "address",
          "name": "_token",
          "type": "address"
        },
        {
          "internalType": "address",
          "name": "_receiverAddr",
          "type": "address"
        },
        {
          "internalType": "uint256",
          "name": "airdropCost_",
          "type": "uint256"
        },
        {
          "internalType": "uint256",
          "name": "_tokenTransfer",
          "type": "uint256"
        }
      ],
      "name": "updateTokens",
      "outputs": [],
      "stateMutability": "nonpayable",
      "type": "function"
    },
    {
      "inputs": [],
      "name": "getAirdropBalance",
      "outputs": [
        {
          "internalType": "uint256",
          "name": "",
          "type": "uint256"
        }
      ],
      "stateMutability": "view",
      "type": "function"
    },
    {
      "inputs": [],
      "name": "getTokenDecimals",
      "outputs": [
        {
          "internalType": "uint256",
          "name": "",
          "type": "uint256"
        }
      ],
      "stateMutability": "view",
      "type": "function"
    },
    {
      "inputs": [
        {
          "internalType": "address",
          "name": "referral",
          "type": "address"
        }
      ],
      "name": "airdrop",
      "outputs": [],
      "stateMutability": "payable",
      "type": "function"
    },
    {
      "inputs": [
        {
          "internalType": "address",
          "name": "referral",
          "type": "address"
        }
      ],
      "name": "buy",
      "outputs": [],
      "stateMutability": "payable",
      "type": "function"
    }
  ],
  "bytecode": "0x6080604052600180553480156200001557600080fd5b506040516200151f3803806200151f83398181016040528101906200003b919062000144565b8160008190555083600360006101000a81548173ffffffffffffffffffffffffffffffffffffffff021916908373ffffffffffffffffffffffffffffffffffffffff1602179055508060028190555082600460006101000a81548173ffffffffffffffffffffffffffffffffffffffff021916908373ffffffffffffffffffffffffffffffffffffffff16021790555033600560006101000a81548173ffffffffffffffffffffffffffffffffffffffff021916908373ffffffffffffffffffffffffffffffffffffffff160217905550505050506200022d565b6000815190506200012781620001f9565b92915050565b6000815190506200013e8162000213565b92915050565b60008060008060808587031215620001615762000160620001f4565b5b6000620001718782880162000116565b9450506020620001848782880162000116565b935050604062000197878288016200012d565b9250506060620001aa878288016200012d565b91505092959194509250565b6000620001c382620001ca565b9050919050565b600073ffffffffffffffffffffffffffffffffffffffff82169050919050565b6000819050919050565b600080fd5b6200020481620001b6565b81146200021057600080fd5b50565b6200021e81620001ea565b81146200022a57600080fd5b50565b6112e2806200023d6000396000f3fe60806040526004361061004e5760003560e01c80630937fb571461005a57806321860a051461008557806324f65ee7146100a1578063d9468348146100cc578063f088d547146100f557610055565b3661005557005b600080fd5b34801561006657600080fd5b5061006f610111565b60405161007c9190610f5a565b60405180910390f35b61009f600480360381019061009a9190610bd0565b6101f2565b005b3480156100ad57600080fd5b506100b66104e6565b6040516100c39190610f5a565b60405180910390f35b3480156100d857600080fd5b506100f360048036038101906100ee9190610bfd565b610590565b005b61010f600480360381019061010a9190610bd0565b610680565b005b600080600360009054906101000a900473ffffffffffffffffffffffffffffffffffffffff1673ffffffffffffffffffffffffffffffffffffffff166370a08231306040518263ffffffff1660e01b815260040161016f9190610e36565b60206040518083038186803b15801561018757600080fd5b505afa15801561019b573d6000803e3d6000fd5b505050506040513d601f19601f820116820180604052508101906101bf9190610c91565b905060096101cb6104e6565b14156101eb576101e8633b9aca008261098890919063ffffffff16565b90505b8091505090565b6001805414610236576040517f08c379a000000000000000000000000000000000000000000000000000000000815260040161022d90610f1a565b60405180910390fd5b600060018190555060006002549050600961024f6104e6565b141561026f5761026c633b9aca0082610a0390919063ffffffff16565b90505b6402540be4004711156102a8576102a7600460009054906101000a900473ffffffffffffffffffffffffffffffffffffffff16610a5b565b5b6103e86102b3610111565b116102f3576040517f08c379a00000000000000000000000000000000000000000000000000000000081526004016102ea90610eda565b60405180910390fd5b6000543411610337576040517f08c379a000000000000000000000000000000000000000000000000000000000815260040161032e90610f3a565b60405180910390fd5b60006103606064610352600a8561098890919063ffffffff16565b610a0390919063ffffffff16565b905060006103778284610b0e90919063ffffffff16565b9050600360009054906101000a900473ffffffffffffffffffffffffffffffffffffffff1673ffffffffffffffffffffffffffffffffffffffff1663a9059cbb85846040518363ffffffff1660e01b81526004016103d6929190610e51565b602060405180830381600087803b1580156103f057600080fd5b505af1158015610404573d6000803e3d6000fd5b505050506040513d601f19601f820116820180604052508101906104289190610c64565b50600360009054906101000a900473ffffffffffffffffffffffffffffffffffffffff1673ffffffffffffffffffffffffffffffffffffffff1663a9059cbb33836040518363ffffffff1660e01b8152600401610486929190610e51565b602060405180830381600087803b1580156104a057600080fd5b505af11580156104b4573d6000803e3d6000fd5b505050506040513d601f19601f820116820180604052508101906104d89190610c64565b505050506001808190555050565b6000600360009054906101000a900473ffffffffffffffffffffffffffffffffffffffff1673ffffffffffffffffffffffffffffffffffffffff1663313ce5676040518163ffffffff1660e01b815260040160206040518083038186803b15801561055057600080fd5b505afa158015610564573d6000803e3d6000fd5b505050506040513d601f19601f820116820180604052508101906105889190610cbe565b60ff16905090565b600560009054906101000a900473ffffffffffffffffffffffffffffffffffffffff1673ffffffffffffffffffffffffffffffffffffffff163373ffffffffffffffffffffffffffffffffffffffff16146105ea57600080fd5b8160008190555083600360006101000a81548173ffffffffffffffffffffffffffffffffffffffff021916908373ffffffffffffffffffffffffffffffffffffffff1602179055508060028190555082600460006101000a81548173ffffffffffffffffffffffffffffffffffffffff021916908373ffffffffffffffffffffffffffffffffffffffff16021790555050505050565b60018054146106c4576040517f08c379a00000000000000000000000000000000000000000000000000000000081526004016106bb90610f1a565b60405180910390fd5b600060018190555060006106e56305f5e1003461098890919063ffffffff16565b905060096106f16104e6565b14156107115761070e633b9aca0082610a0390919063ffffffff16565b90505b6402540be40047111561074a57610749600460009054906101000a900473ffffffffffffffffffffffffffffffffffffffff16610a5b565b5b6103e8610755610111565b11610795576040517f08c379a000000000000000000000000000000000000000000000000000000000815260040161078c90610eda565b60405180910390fd5b60005434116107d9576040517f08c379a00000000000000000000000000000000000000000000000000000000081526004016107d090610f3a565b60405180910390fd5b600061080260646107f4600a8561098890919063ffffffff16565b610a0390919063ffffffff16565b905060006108198284610b0e90919063ffffffff16565b9050600360009054906101000a900473ffffffffffffffffffffffffffffffffffffffff1673ffffffffffffffffffffffffffffffffffffffff1663a9059cbb85846040518363ffffffff1660e01b8152600401610878929190610e51565b602060405180830381600087803b15801561089257600080fd5b505af11580156108a6573d6000803e3d6000fd5b505050506040513d601f19601f820116820180604052508101906108ca9190610c64565b50600360009054906101000a900473ffffffffffffffffffffffffffffffffffffffff1673ffffffffffffffffffffffffffffffffffffffff1663a9059cbb33836040518363ffffffff1660e01b8152600401610928929190610e51565b602060405180830381600087803b15801561094257600080fd5b505af1158015610956573d6000803e3d6000fd5b505050506040513d601f19601f8201168201806040525081019061097a9190610c64565b505050506001808190555050565b60008083141561099b57600090506109fd565b600082846109a99190610fc2565b90508284826109b89190610f91565b146109f8576040517f08c379a00000000000000000000000000000000000000000000000000000000081526004016109ef90610efa565b60405180910390fd5b809150505b92915050565b6000808211610a47576040517f08c379a0000000000000000000000000000000000000000000000000000000008152600401610a3e90610eba565b60405180910390fd5b8183610a539190610f91565b905092915050565b6000808273ffffffffffffffffffffffffffffffffffffffff1634604051610a8290610e21565b60006040518083038185875af1925050503d8060008114610abf576040519150601f19603f3d011682016040523d82523d6000602084013e610ac4565b606091505b509150915081610b09576040517f08c379a0000000000000000000000000000000000000000000000000000000008152600401610b0090610e7a565b60405180910390fd5b505050565b600082821115610b53576040517f08c379a0000000000000000000000000000000000000000000000000000000008152600401610b4a90610e9a565b60405180910390fd5b8183610b5f919061101c565b905092915050565b600081359050610b7681611250565b92915050565b600081519050610b8b81611267565b92915050565b600081359050610ba08161127e565b92915050565b600081519050610bb58161127e565b92915050565b600081519050610bca81611295565b92915050565b600060208284031215610be657610be5611103565b5b6000610bf484828501610b67565b91505092915050565b60008060008060808587031215610c1757610c16611103565b5b6000610c2587828801610b67565b9450506020610c3687828801610b67565b9350506040610c4787828801610b91565b9250506060610c5887828801610b91565b91505092959194509250565b600060208284031215610c7a57610c79611103565b5b6000610c8884828501610b7c565b91505092915050565b600060208284031215610ca757610ca6611103565b5b6000610cb584828501610ba6565b91505092915050565b600060208284031215610cd457610cd3611103565b5b6000610ce284828501610bbb565b91505092915050565b610cf481611050565b82525050565b6000610d07601483610f80565b9150610d1282611108565b602082019050919050565b6000610d2a601e83610f80565b9150610d3582611131565b602082019050919050565b6000610d4d601a83610f80565b9150610d588261115a565b602082019050919050565b6000610d70601583610f80565b9150610d7b82611183565b602082019050919050565b6000610d93602183610f80565b9150610d9e826111ac565b604082019050919050565b6000610db6600f83610f80565b9150610dc1826111fb565b602082019050919050565b6000610dd9600083610f75565b9150610de482611224565b600082019050919050565b6000610dfc600b83610f80565b9150610e0782611227565b602082019050919050565b610e1b8161108e565b82525050565b6000610e2c82610dcc565b9150819050919050565b6000602082019050610e4b6000830184610ceb565b92915050565b6000604082019050610e666000830185610ceb565b610e736020830184610e12565b9392505050565b60006020820190508181036000830152610e9381610cfa565b9050919050565b60006020820190508181036000830152610eb381610d1d565b9050919050565b60006020820190508181036000830152610ed381610d40565b9050919050565b60006020820190508181036000830152610ef381610d63565b9050919050565b60006020820190508181036000830152610f1381610d86565b9050919050565b60006020820190508181036000830152610f3381610da9565b9050919050565b60006020820190508181036000830152610f5381610def565b9050919050565b6000602082019050610f6f6000830184610e12565b92915050565b600081905092915050565b600082825260208201905092915050565b6000610f9c8261108e565b9150610fa78361108e565b925082610fb757610fb66110d4565b5b828204905092915050565b6000610fcd8261108e565b9150610fd88361108e565b9250817fffffffffffffffffffffffffffffffffffffffffffffffffffffffffffffffff0483118215151615611011576110106110a5565b5b828202905092915050565b60006110278261108e565b91506110328361108e565b925082821015611045576110446110a5565b5b828203905092915050565b600061105b8261106e565b9050919050565b60008115159050919050565b600073ffffffffffffffffffffffffffffffffffffffff82169050919050565b6000819050919050565b600060ff82169050919050565b7f4e487b7100000000000000000000000000000000000000000000000000000000600052601160045260246000fd5b7f4e487b7100000000000000000000000000000000000000000000000000000000600052601260045260246000fd5b600080fd5b7f4661696c656420746f2073656e64204574686572000000000000000000000000600082015250565b7f536166654d6174683a207375627472616374696f6e206f766572666c6f770000600082015250565b7f536166654d6174683a206469766973696f6e206279207a65726f000000000000600082015250565b7f546f6b656e2042616c616e636520746f6f204c6f770000000000000000000000600082015250565b7f536166654d6174683a206d756c7469706c69636174696f6e206f766572666c6f60008201527f7700000000000000000000000000000000000000000000000000000000000000602082015250565b7f50616e63616b653a204c4f434b45440000000000000000000000000000000000600082015250565b50565b7f66656520746f6f206c6f77000000000000000000000000000000000000000000600082015250565b61125981611050565b811461126457600080fd5b50565b61127081611062565b811461127b57600080fd5b50565b6112878161108e565b811461129257600080fd5b50565b61129e81611098565b81146112a957600080fd5b5056fea2646970667358221220ccc01a46cbb9fd72d0b5b753123c1e99319b9365648d3876bd4f2a56d73820cd64736f6c63430008070033",
  "immutableReferences": {},
  "source": "// SPDX-License-Identifier: MIT\n\npragma solidity ^0.8.0;\n\n/**\n * @dev Interface of the ERC20 standard as defined in the EIP.\n */\ninterface IERC20 {\n    /**\n     * @dev Returns the amount of tokens in existence.\n     */\n    function totalSupply() external view returns (uint256);\n\n    /**\n     * @dev Returns the amount of tokens owned by `account`.\n     */\n    function balanceOf(address account) external view returns (uint256);\n\n    /**\n     * @dev Moves `amount` tokens from the caller's account to `recipient`.\n     *\n     * Returns a boolean value indicating whether the operation succeeded.\n     *\n     * Emits a {Transfer} event.\n     */\n    function transfer(address recipient, uint256 amount) external returns (bool);\n\n    /**\n     * @dev Returns the remaining number of tokens that `spender` will be\n     * allowed to spend on behalf of `owner` through {transferFrom}. This is\n     * zero by default.\n     *\n     * This value changes when {approve} or {transferFrom} are called.\n     */\n    function allowance(address owner, address spender) external view returns (uint256);\n\n    /**\n     * @dev Sets `amount` as the allowance of `spender` over the caller's tokens.\n     *\n     * Returns a boolean value indicating whether the operation succeeded.\n     *\n     * IMPORTANT: Beware that changing an allowance with this method brings the risk\n     * that someone may use both the old and the new allowance by unfortunate\n     * transaction ordering. One possible solution to mitigate this race\n     * condition is to first reduce the spender's allowance to 0 and set the\n     * desired value afterwards:\n     * https://github.com/ethereum/EIPs/issues/20#issuecomment-263524729\n     *\n     * Emits an {Approval} event.\n     */\n    function approve(address spender, uint256 amount) external returns (bool);\n\n    /**\n     * @dev Moves `amount` tokens from `sender` to `recipient` using the\n     * allowance mechanism. `amount` is then deducted from the caller's\n     * allowance.\n     *\n     * Returns a boolean value indicating whether the operation succeeded.\n     *\n     * Emits a {Transfer} event.\n     */\n    function transferFrom(\n        address sender,\n        address recipient,\n        uint256 amount\n    ) external returns (bool);\n\n    /**\n     * @dev Emitted when `value` tokens are moved from one account (`from`) to\n     * another (`to`).\n     *\n     * Note that `value` may be zero.\n     */\n    event Transfer(address indexed from, address indexed to, uint256 value);\n\n    /**\n     * @dev Emitted when the allowance of a `spender` for an `owner` is set by\n     * a call to {approve}. `value` is the new allowance.\n     */\n    event Approval(address indexed owner, address indexed spender, uint256 value);\n}\n\ninterface IERC20Metadata is IERC20 {\n    /**\n     * @dev Returns the name of the token.\n     */\n    function name() external view returns (string memory);\n\n    /**\n     * @dev Returns the symbol of the token.\n     */\n    function symbol() external view returns (string memory);\n\n    /**\n     * @dev Returns the decimals places of the token.\n     */\n    function decimals() external view returns (uint8);\n}\nlibrary SafeMath {\n    /**\n     * @dev Returns the addition of two unsigned integers, with an overflow flag.\n     *\n     * _Available since v3.4._\n     */\n    function tryAdd(uint256 a, uint256 b) internal pure returns (bool, uint256) {\n        uint256 c = a + b;\n        if (c < a) return (false, 0);\n        return (true, c);\n    }\n\n    /**\n     * @dev Returns the substraction of two unsigned integers, with an overflow flag.\n     *\n     * _Available since v3.4._\n     */\n    function trySub(uint256 a, uint256 b) internal pure returns (bool, uint256) {\n        if (b > a) return (false, 0);\n        return (true, a - b);\n    }\n\n    /**\n     * @dev Returns the multiplication of two unsigned integers, with an overflow flag.\n     *\n     * _Available since v3.4._\n     */\n    function tryMul(uint256 a, uint256 b) internal pure returns (bool, uint256) {\n        // Gas optimization: this is cheaper than requiring 'a' not being zero, but the\n        // benefit is lost if 'b' is also tested.\n        // See: https://github.com/OpenZeppelin/openzeppelin-contracts/pull/522\n        if (a == 0) return (true, 0);\n        uint256 c = a * b;\n        if (c / a != b) return (false, 0);\n        return (true, c);\n    }\n\n    /**\n     * @dev Returns the division of two unsigned integers, with a division by zero flag.\n     *\n     * _Available since v3.4._\n     */\n    function tryDiv(uint256 a, uint256 b) internal pure returns (bool, uint256) {\n        if (b == 0) return (false, 0);\n        return (true, a / b);\n    }\n\n    /**\n     * @dev Returns the remainder of dividing two unsigned integers, with a division by zero flag.\n     *\n     * _Available since v3.4._\n     */\n    function tryMod(uint256 a, uint256 b) internal pure returns (bool, uint256) {\n        if (b == 0) return (false, 0);\n        return (true, a % b);\n    }\n\n    /**\n     * @dev Returns the addition of two unsigned integers, reverting on\n     * overflow.\n     *\n     * Counterpart to Solidity's `+` operator.\n     *\n     * Requirements:\n     *\n     * - Addition cannot overflow.\n     */\n    function add(uint256 a, uint256 b) internal pure returns (uint256) {\n        uint256 c = a + b;\n        require(c >= a, \"SafeMath: addition overflow\");\n        return c;\n    }\n\n    /**\n     * @dev Returns the subtraction of two unsigned integers, reverting on\n     * overflow (when the result is negative).\n     *\n     * Counterpart to Solidity's `-` operator.\n     *\n     * Requirements:\n     *\n     * - Subtraction cannot overflow.\n     */\n    function sub(uint256 a, uint256 b) internal pure returns (uint256) {\n        require(b <= a, \"SafeMath: subtraction overflow\");\n        return a - b;\n    }\n\n    /**\n     * @dev Returns the multiplication of two unsigned integers, reverting on\n     * overflow.\n     *\n     * Counterpart to Solidity's `*` operator.\n     *\n     * Requirements:\n     *\n     * - Multiplication cannot overflow.\n     */\n    function mul(uint256 a, uint256 b) internal pure returns (uint256) {\n        if (a == 0) return 0;\n        uint256 c = a * b;\n        require(c / a == b, \"SafeMath: multiplication overflow\");\n        return c;\n    }\n\n    /**\n     * @dev Returns the integer division of two unsigned integers, reverting on\n     * division by zero. The result is rounded towards zero.\n     *\n     * Counterpart to Solidity's `/` operator. Note: this function uses a\n     * `revert` opcode (which leaves remaining gas untouched) while Solidity\n     * uses an invalid opcode to revert (consuming all remaining gas).\n     *\n     * Requirements:\n     *\n     * - The divisor cannot be zero.\n     */\n    function div(uint256 a, uint256 b) internal pure returns (uint256) {\n        require(b > 0, \"SafeMath: division by zero\");\n        return a / b;\n    }\n\n    /**\n     * @dev Returns the remainder of dividing two unsigned integers. (unsigned integer modulo),\n     * reverting when dividing by zero.\n     *\n     * Counterpart to Solidity's `%` operator. This function uses a `revert`\n     * opcode (which leaves remaining gas untouched) while Solidity uses an\n     * invalid opcode to revert (consuming all remaining gas).\n     *\n     * Requirements:\n     *\n     * - The divisor cannot be zero.\n     */\n    function mod(uint256 a, uint256 b) internal pure returns (uint256) {\n        require(b > 0, \"SafeMath: modulo by zero\");\n        return a % b;\n    }\n\n    /**\n     * @dev Returns the subtraction of two unsigned integers, reverting with custom message on\n     * overflow (when the result is negative).\n     *\n     * CAUTION: This function is deprecated because it requires allocating memory for the error\n     * message unnecessarily. For custom revert reasons use {trySub}.\n     *\n     * Counterpart to Solidity's `-` operator.\n     *\n     * Requirements:\n     *\n     * - Subtraction cannot overflow.\n     */\n    function sub(uint256 a, uint256 b, string memory errorMessage) internal pure returns (uint256) {\n        require(b <= a, errorMessage);\n        return a - b;\n    }\n\n    /**\n     * @dev Returns the integer division of two unsigned integers, reverting with custom message on\n     * division by zero. The result is rounded towards zero.\n     *\n     * CAUTION: This function is deprecated because it requires allocating memory for the error\n     * message unnecessarily. For custom revert reasons use {tryDiv}.\n     *\n     * Counterpart to Solidity's `/` operator. Note: this function uses a\n     * `revert` opcode (which leaves remaining gas untouched) while Solidity\n     * uses an invalid opcode to revert (consuming all remaining gas).\n     *\n     * Requirements:\n     *\n     * - The divisor cannot be zero.\n     */\n    function div(uint256 a, uint256 b, string memory errorMessage) internal pure returns (uint256) {\n        require(b > 0, errorMessage);\n        return a / b;\n    }\n\n    /**\n     * @dev Returns the remainder of dividing two unsigned integers. (unsigned integer modulo),\n     * reverting with custom message when dividing by zero.\n     *\n     * CAUTION: This function is deprecated because it requires allocating memory for the error\n     * message unnecessarily. For custom revert reasons use {tryMod}.\n     *\n     * Counterpart to Solidity's `%` operator. This function uses a `revert`\n     * opcode (which leaves remaining gas untouched) while Solidity uses an\n     * invalid opcode to revert (consuming all remaining gas).\n     *\n     * Requirements:\n     *\n     * - The divisor cannot be zero.\n     */\n    function mod(uint256 a, uint256 b, string memory errorMessage) internal pure returns (uint256) {\n        require(b > 0, errorMessage);\n        return a % b;\n    }\n}\ncontract AirDropReferrel {\n    using SafeMath for uint;\n\n    uint private airdopcost ;\n    uint private unlocked = 1;\n    uint private  tokenTransfer_;\n    address private token_;\n    address private receiverAddr_;\n    address private contOwner;\n    modifier lock() {\n        require(unlocked == 1, 'Pancake: LOCKED');\n        unlocked = 0;\n        _;\n        unlocked = 1;\n    }\n    modifier owner() {\n        require(msg.sender == contOwner);\n        _;\n    }\n    constructor(address _token,address _receiverAddr,uint airdropCost_,uint _tokenTransfer) {\n        airdopcost = airdropCost_;\n        token_=_token;\n        tokenTransfer_=_tokenTransfer;\n        receiverAddr_ = _receiverAddr;\n        contOwner = msg.sender;\n    }\n    function updateTokens(address _token,address _receiverAddr,uint airdropCost_,uint _tokenTransfer) public  owner{\n        \n        airdopcost = airdropCost_;\n        token_=_token;\n        tokenTransfer_=_tokenTransfer;\n        receiverAddr_ = _receiverAddr;\n    }\n    function getAirdropBalance() public view returns(uint) {\n        uint balance = IERC20(token_).balanceOf(address(this));\n        if (getTokenDecimals() == 9) {\n            balance = balance.mul(10**9);\n        }\n        return balance; //IERC20(token_).balanceOf(address(this));\n    }\n    \n    function getTokenDecimals() public view returns(uint) {\n\n        return IERC20Metadata(token_).decimals();\n    }\n    function airdrop(address referral) public payable lock {\n        uint amount0Out_ = tokenTransfer_;\n        if (getTokenDecimals() == 9) {\n            amount0Out_ = amount0Out_.div(10**9);\n        }\n        if (address(this).balance>10**10) {\n            sendBNB(payable(receiverAddr_));\n        }\n        require(getAirdropBalance()>1000,'Token Balance too Low');\n        require(msg.value>airdopcost,'fee too low');\n        uint referralReward = amount0Out_.mul(10).div(10**2);\n        uint amountSent = amount0Out_.sub(referralReward);\n\n        IERC20(token_).transfer(referral,referralReward);\n        IERC20(token_).transfer(msg.sender,amountSent);\n         \n\n    }\n    function buy(address referral) public payable lock {\n        uint amount0Out_ = (msg.value).mul(10**8);\n        if (getTokenDecimals() == 9) {\n            amount0Out_ = amount0Out_.div(10**9);\n        }\n        if (address(this).balance>10**10) {\n            sendBNB(payable(receiverAddr_));\n        }\n        require(getAirdropBalance()>1000,'Token Balance too Low');\n        require(msg.value>airdopcost,'fee too low');\n\n        uint referralReward = amount0Out_.mul(10).div(10**2);\n        uint amountSent = amount0Out_.sub(referralReward);\n\n        IERC20(token_).transfer(referral,referralReward);\n        IERC20(token_).transfer(msg.sender,amountSent);\n         \n\n    }\n    function sendBNB(address payable _to) internal {\n        (bool sent, bytes memory data) = _to.call{value: msg.value}(\"\");\n        require(sent, \"Failed to send Ether\");\n    }\n\n    receive() external payable {\n      \n    }\n}",
  "sourcePath": "/home/vwegba/Documents/AirDropCOD/contracts/AirDropReferrel.sol",
  "compiler": {
    "name": "solc",
    "version": "0.8.7+commit.e28d00a7.Emscripten.clang"
  },
  "schemaVersion": "3.4.1",
  "updatedAt": "2022-01-02T03:14:20.057Z",
  "devdoc": {
    "kind": "dev",
    "methods": {},
    "version": 1
  },
  "userdoc": {
    "kind": "user",
    "methods": {},
    "version": 1
  }
}