{
  "contractName": "AirDropTokenCont",
  "abi": [
    {
      "inputs": [
        {
          "internalType": "address",
          "name": "_token",
          "type": "address"
        },
        {
          "internalType": "address",
          "name": "_receiverAddr",
          "type": "address"
        },
        {
          "internalType": "uint256",
          "name": "airdropCost_",
          "type": "uint256"
        },
        {
          "internalType": "uint256",
          "name": "_tokenTransfer",
          "type": "uint256"
        }
      ],
      "stateMutability": "nonpayable",
      "type": "constructor"
    },
    {
      "stateMutability": "payable",
      "type": "receive"
    },
    {
      "inputs": [],
      "name": "getAirdropBalance",
      "outputs": [
        {
          "internalType": "uint256",
          "name": "",
          "type": "uint256"
        }
      ],
      "stateMutability": "view",
      "type": "function"
    },
    {
      "inputs": [],
      "name": "getTokenDecimals",
      "outputs": [
        {
          "internalType": "uint256",
          "name": "",
          "type": "uint256"
        }
      ],
      "stateMutability": "view",
      "type": "function"
    },
    {
      "inputs": [],
      "name": "airdrop",
      "outputs": [],
      "stateMutability": "payable",
      "type": "function"
    },
    {
      "inputs": [],
      "name": "buy",
      "outputs": [],
      "stateMutability": "payable",
      "type": "function"
    }
  ],
  "bytecode": "0x60a0604052600180553480156200001557600080fd5b50604051620010093803806200100983398181016040528101906200003b919062000104565b8160008190555083600260006101000a81548173ffffffffffffffffffffffffffffffffffffffff021916908373ffffffffffffffffffffffffffffffffffffffff160217905550806080818152505082600360006101000a81548173ffffffffffffffffffffffffffffffffffffffff021916908373ffffffffffffffffffffffffffffffffffffffff16021790555050505050620001ed565b600081519050620000e781620001b9565b92915050565b600081519050620000fe81620001d3565b92915050565b60008060008060808587031215620001215762000120620001b4565b5b60006200013187828801620000d6565b94505060206200014487828801620000d6565b93505060406200015787828801620000ed565b92505060606200016a87828801620000ed565b91505092959194509250565b600062000183826200018a565b9050919050565b600073ffffffffffffffffffffffffffffffffffffffff82169050919050565b6000819050919050565b600080fd5b620001c48162000176565b8114620001d057600080fd5b50565b620001de81620001aa565b8114620001ea57600080fd5b50565b608051610e006200020960003960006102940152610e006000f3fe6080604052600436106100435760003560e01c80630937fb571461004f57806324f65ee71461007a5780633884d635146100a5578063a6f2ae3a146100af5761004a565b3661004a57005b600080fd5b34801561005b57600080fd5b506100646100b9565b6040516100719190610aec565b60405180910390f35b34801561008657600080fd5b5061008f61019a565b60405161009c9190610aec565b60405180910390f35b6100ad610244565b005b6100b7610461565b005b600080600260009054906101000a900473ffffffffffffffffffffffffffffffffffffffff1673ffffffffffffffffffffffffffffffffffffffff166370a08231306040518263ffffffff1660e01b815260040161011791906109e8565b60206040518083038186803b15801561012f57600080fd5b505afa158015610143573d6000803e3d6000fd5b505050506040513d601f19601f820116820180604052508101906101679190610866565b9050600961017361019a565b141561019357610190633b9aca008261067490919063ffffffff16565b90505b8091505090565b6000600260009054906101000a900473ffffffffffffffffffffffffffffffffffffffff1673ffffffffffffffffffffffffffffffffffffffff1663313ce5676040518163ffffffff1660e01b815260040160206040518083038186803b15801561020457600080fd5b505afa158015610218573d6000803e3d6000fd5b505050506040513d601f19601f8201168201806040525081019061023c9190610893565b60ff16905090565b6001805414610288576040517f08c379a000000000000000000000000000000000000000000000000000000000815260040161027f90610aac565b60405180910390fd5b600060018190555060007f0000000000000000000000000000000000000000000000000000000000000000905060096102bf61019a565b14156102df576102dc633b9aca00826106ef90919063ffffffff16565b90505b6402540be40047111561031857610317600360009054906101000a900473ffffffffffffffffffffffffffffffffffffffff16610747565b5b6103e86103236100b9565b11610363576040517f08c379a000000000000000000000000000000000000000000000000000000000815260040161035a90610a6c565b60405180910390fd5b60005434116103a7576040517f08c379a000000000000000000000000000000000000000000000000000000000815260040161039e90610acc565b60405180910390fd5b600260009054906101000a900473ffffffffffffffffffffffffffffffffffffffff1673ffffffffffffffffffffffffffffffffffffffff1663a9059cbb33836040518363ffffffff1660e01b8152600401610404929190610a03565b602060405180830381600087803b15801561041e57600080fd5b505af1158015610432573d6000803e3d6000fd5b505050506040513d601f19601f820116820180604052508101906104569190610839565b505060018081905550565b60018054146104a5576040517f08c379a000000000000000000000000000000000000000000000000000000000815260040161049c90610aac565b60405180910390fd5b600060018190555060006104c66305f5e1003461067490919063ffffffff16565b905060096104d261019a565b14156104f2576104ef633b9aca00826106ef90919063ffffffff16565b90505b6402540be40047111561052b5761052a600360009054906101000a900473ffffffffffffffffffffffffffffffffffffffff16610747565b5b6103e86105366100b9565b11610576576040517f08c379a000000000000000000000000000000000000000000000000000000000815260040161056d90610a6c565b60405180910390fd5b60005434116105ba576040517f08c379a00000000000000000000000000000000000000000000000000000000081526004016105b190610acc565b60405180910390fd5b600260009054906101000a900473ffffffffffffffffffffffffffffffffffffffff1673ffffffffffffffffffffffffffffffffffffffff1663a9059cbb33836040518363ffffffff1660e01b8152600401610617929190610a03565b602060405180830381600087803b15801561063157600080fd5b505af1158015610645573d6000803e3d6000fd5b505050506040513d601f19601f820116820180604052508101906106699190610839565b505060018081905550565b60008083141561068757600090506106e9565b600082846106959190610b54565b90508284826106a49190610b23565b146106e4576040517f08c379a00000000000000000000000000000000000000000000000000000000081526004016106db90610a8c565b60405180910390fd5b809150505b92915050565b6000808211610733576040517f08c379a000000000000000000000000000000000000000000000000000000000815260040161072a90610a4c565b60405180910390fd5b818361073f9190610b23565b905092915050565b6000808273ffffffffffffffffffffffffffffffffffffffff163460405161076e906109d3565b60006040518083038185875af1925050503d80600081146107ab576040519150601f19603f3d011682016040523d82523d6000602084013e6107b0565b606091505b5091509150816107f5576040517f08c379a00000000000000000000000000000000000000000000000000000000081526004016107ec90610a2c565b60405180910390fd5b505050565b60008151905061080981610d85565b92915050565b60008151905061081e81610d9c565b92915050565b60008151905061083381610db3565b92915050565b60006020828403121561084f5761084e610c61565b5b600061085d848285016107fa565b91505092915050565b60006020828403121561087c5761087b610c61565b5b600061088a8482850161080f565b91505092915050565b6000602082840312156108a9576108a8610c61565b5b60006108b784828501610824565b91505092915050565b6108c981610bae565b82525050565b60006108dc601483610b12565b91506108e782610c66565b602082019050919050565b60006108ff601a83610b12565b915061090a82610c8f565b602082019050919050565b6000610922601583610b12565b915061092d82610cb8565b602082019050919050565b6000610945602183610b12565b915061095082610ce1565b604082019050919050565b6000610968600f83610b12565b915061097382610d30565b602082019050919050565b600061098b600083610b07565b915061099682610d59565b600082019050919050565b60006109ae600b83610b12565b91506109b982610d5c565b602082019050919050565b6109cd81610bec565b82525050565b60006109de8261097e565b9150819050919050565b60006020820190506109fd60008301846108c0565b92915050565b6000604082019050610a1860008301856108c0565b610a2560208301846109c4565b9392505050565b60006020820190508181036000830152610a45816108cf565b9050919050565b60006020820190508181036000830152610a65816108f2565b9050919050565b60006020820190508181036000830152610a8581610915565b9050919050565b60006020820190508181036000830152610aa581610938565b9050919050565b60006020820190508181036000830152610ac58161095b565b9050919050565b60006020820190508181036000830152610ae5816109a1565b9050919050565b6000602082019050610b0160008301846109c4565b92915050565b600081905092915050565b600082825260208201905092915050565b6000610b2e82610bec565b9150610b3983610bec565b925082610b4957610b48610c32565b5b828204905092915050565b6000610b5f82610bec565b9150610b6a83610bec565b9250817fffffffffffffffffffffffffffffffffffffffffffffffffffffffffffffffff0483118215151615610ba357610ba2610c03565b5b828202905092915050565b6000610bb982610bcc565b9050919050565b60008115159050919050565b600073ffffffffffffffffffffffffffffffffffffffff82169050919050565b6000819050919050565b600060ff82169050919050565b7f4e487b7100000000000000000000000000000000000000000000000000000000600052601160045260246000fd5b7f4e487b7100000000000000000000000000000000000000000000000000000000600052601260045260246000fd5b600080fd5b7f4661696c656420746f2073656e64204574686572000000000000000000000000600082015250565b7f536166654d6174683a206469766973696f6e206279207a65726f000000000000600082015250565b7f546f6b656e2042616c616e636520746f6f204c6f770000000000000000000000600082015250565b7f536166654d6174683a206d756c7469706c69636174696f6e206f766572666c6f60008201527f7700000000000000000000000000000000000000000000000000000000000000602082015250565b7f50616e63616b653a204c4f434b45440000000000000000000000000000000000600082015250565b50565b7f66656520746f6f206c6f77000000000000000000000000000000000000000000600082015250565b610d8e81610bc0565b8114610d9957600080fd5b50565b610da581610bec565b8114610db057600080fd5b50565b610dbc81610bf6565b8114610dc757600080fd5b5056fea2646970667358221220ce367da0cc1c04e5e8644969666e5311eb0726e5abd81e29a030cc09c625164664736f6c63430008070033",
  "immutableReferences": {
    "460": [
      {
        "length": 32,
        "start": 660
      }
    ]
  },
  "source": "// SPDX-License-Identifier: MIT\n\npragma solidity ^0.8.0;\n\n/**\n * @dev Interface of the ERC20 standard as defined in the EIP.\n */\ninterface IERC20 {\n    /**\n     * @dev Returns the amount of tokens in existence.\n     */\n    function totalSupply() external view returns (uint256);\n\n    /**\n     * @dev Returns the amount of tokens owned by `account`.\n     */\n    function balanceOf(address account) external view returns (uint256);\n\n    /**\n     * @dev Moves `amount` tokens from the caller's account to `recipient`.\n     *\n     * Returns a boolean value indicating whether the operation succeeded.\n     *\n     * Emits a {Transfer} event.\n     */\n    function transfer(address recipient, uint256 amount) external returns (bool);\n\n    /**\n     * @dev Returns the remaining number of tokens that `spender` will be\n     * allowed to spend on behalf of `owner` through {transferFrom}. This is\n     * zero by default.\n     *\n     * This value changes when {approve} or {transferFrom} are called.\n     */\n    function allowance(address owner, address spender) external view returns (uint256);\n\n    /**\n     * @dev Sets `amount` as the allowance of `spender` over the caller's tokens.\n     *\n     * Returns a boolean value indicating whether the operation succeeded.\n     *\n     * IMPORTANT: Beware that changing an allowance with this method brings the risk\n     * that someone may use both the old and the new allowance by unfortunate\n     * transaction ordering. One possible solution to mitigate this race\n     * condition is to first reduce the spender's allowance to 0 and set the\n     * desired value afterwards:\n     * https://github.com/ethereum/EIPs/issues/20#issuecomment-263524729\n     *\n     * Emits an {Approval} event.\n     */\n    function approve(address spender, uint256 amount) external returns (bool);\n\n    /**\n     * @dev Moves `amount` tokens from `sender` to `recipient` using the\n     * allowance mechanism. `amount` is then deducted from the caller's\n     * allowance.\n     *\n     * Returns a boolean value indicating whether the operation succeeded.\n     *\n     * Emits a {Transfer} event.\n     */\n    function transferFrom(\n        address sender,\n        address recipient,\n        uint256 amount\n    ) external returns (bool);\n\n    /**\n     * @dev Emitted when `value` tokens are moved from one account (`from`) to\n     * another (`to`).\n     *\n     * Note that `value` may be zero.\n     */\n    event Transfer(address indexed from, address indexed to, uint256 value);\n\n    /**\n     * @dev Emitted when the allowance of a `spender` for an `owner` is set by\n     * a call to {approve}. `value` is the new allowance.\n     */\n    event Approval(address indexed owner, address indexed spender, uint256 value);\n}\n\ninterface IERC20Metadata is IERC20 {\n    /**\n     * @dev Returns the name of the token.\n     */\n    function name() external view returns (string memory);\n\n    /**\n     * @dev Returns the symbol of the token.\n     */\n    function symbol() external view returns (string memory);\n\n    /**\n     * @dev Returns the decimals places of the token.\n     */\n    function decimals() external view returns (uint8);\n}\nlibrary SafeMath {\n    /**\n     * @dev Returns the addition of two unsigned integers, with an overflow flag.\n     *\n     * _Available since v3.4._\n     */\n    function tryAdd(uint256 a, uint256 b) internal pure returns (bool, uint256) {\n        uint256 c = a + b;\n        if (c < a) return (false, 0);\n        return (true, c);\n    }\n\n    /**\n     * @dev Returns the substraction of two unsigned integers, with an overflow flag.\n     *\n     * _Available since v3.4._\n     */\n    function trySub(uint256 a, uint256 b) internal pure returns (bool, uint256) {\n        if (b > a) return (false, 0);\n        return (true, a - b);\n    }\n\n    /**\n     * @dev Returns the multiplication of two unsigned integers, with an overflow flag.\n     *\n     * _Available since v3.4._\n     */\n    function tryMul(uint256 a, uint256 b) internal pure returns (bool, uint256) {\n        // Gas optimization: this is cheaper than requiring 'a' not being zero, but the\n        // benefit is lost if 'b' is also tested.\n        // See: https://github.com/OpenZeppelin/openzeppelin-contracts/pull/522\n        if (a == 0) return (true, 0);\n        uint256 c = a * b;\n        if (c / a != b) return (false, 0);\n        return (true, c);\n    }\n\n    /**\n     * @dev Returns the division of two unsigned integers, with a division by zero flag.\n     *\n     * _Available since v3.4._\n     */\n    function tryDiv(uint256 a, uint256 b) internal pure returns (bool, uint256) {\n        if (b == 0) return (false, 0);\n        return (true, a / b);\n    }\n\n    /**\n     * @dev Returns the remainder of dividing two unsigned integers, with a division by zero flag.\n     *\n     * _Available since v3.4._\n     */\n    function tryMod(uint256 a, uint256 b) internal pure returns (bool, uint256) {\n        if (b == 0) return (false, 0);\n        return (true, a % b);\n    }\n\n    /**\n     * @dev Returns the addition of two unsigned integers, reverting on\n     * overflow.\n     *\n     * Counterpart to Solidity's `+` operator.\n     *\n     * Requirements:\n     *\n     * - Addition cannot overflow.\n     */\n    function add(uint256 a, uint256 b) internal pure returns (uint256) {\n        uint256 c = a + b;\n        require(c >= a, \"SafeMath: addition overflow\");\n        return c;\n    }\n\n    /**\n     * @dev Returns the subtraction of two unsigned integers, reverting on\n     * overflow (when the result is negative).\n     *\n     * Counterpart to Solidity's `-` operator.\n     *\n     * Requirements:\n     *\n     * - Subtraction cannot overflow.\n     */\n    function sub(uint256 a, uint256 b) internal pure returns (uint256) {\n        require(b <= a, \"SafeMath: subtraction overflow\");\n        return a - b;\n    }\n\n    /**\n     * @dev Returns the multiplication of two unsigned integers, reverting on\n     * overflow.\n     *\n     * Counterpart to Solidity's `*` operator.\n     *\n     * Requirements:\n     *\n     * - Multiplication cannot overflow.\n     */\n    function mul(uint256 a, uint256 b) internal pure returns (uint256) {\n        if (a == 0) return 0;\n        uint256 c = a * b;\n        require(c / a == b, \"SafeMath: multiplication overflow\");\n        return c;\n    }\n\n    /**\n     * @dev Returns the integer division of two unsigned integers, reverting on\n     * division by zero. The result is rounded towards zero.\n     *\n     * Counterpart to Solidity's `/` operator. Note: this function uses a\n     * `revert` opcode (which leaves remaining gas untouched) while Solidity\n     * uses an invalid opcode to revert (consuming all remaining gas).\n     *\n     * Requirements:\n     *\n     * - The divisor cannot be zero.\n     */\n    function div(uint256 a, uint256 b) internal pure returns (uint256) {\n        require(b > 0, \"SafeMath: division by zero\");\n        return a / b;\n    }\n\n    /**\n     * @dev Returns the remainder of dividing two unsigned integers. (unsigned integer modulo),\n     * reverting when dividing by zero.\n     *\n     * Counterpart to Solidity's `%` operator. This function uses a `revert`\n     * opcode (which leaves remaining gas untouched) while Solidity uses an\n     * invalid opcode to revert (consuming all remaining gas).\n     *\n     * Requirements:\n     *\n     * - The divisor cannot be zero.\n     */\n    function mod(uint256 a, uint256 b) internal pure returns (uint256) {\n        require(b > 0, \"SafeMath: modulo by zero\");\n        return a % b;\n    }\n\n    /**\n     * @dev Returns the subtraction of two unsigned integers, reverting with custom message on\n     * overflow (when the result is negative).\n     *\n     * CAUTION: This function is deprecated because it requires allocating memory for the error\n     * message unnecessarily. For custom revert reasons use {trySub}.\n     *\n     * Counterpart to Solidity's `-` operator.\n     *\n     * Requirements:\n     *\n     * - Subtraction cannot overflow.\n     */\n    function sub(uint256 a, uint256 b, string memory errorMessage) internal pure returns (uint256) {\n        require(b <= a, errorMessage);\n        return a - b;\n    }\n\n    /**\n     * @dev Returns the integer division of two unsigned integers, reverting with custom message on\n     * division by zero. The result is rounded towards zero.\n     *\n     * CAUTION: This function is deprecated because it requires allocating memory for the error\n     * message unnecessarily. For custom revert reasons use {tryDiv}.\n     *\n     * Counterpart to Solidity's `/` operator. Note: this function uses a\n     * `revert` opcode (which leaves remaining gas untouched) while Solidity\n     * uses an invalid opcode to revert (consuming all remaining gas).\n     *\n     * Requirements:\n     *\n     * - The divisor cannot be zero.\n     */\n    function div(uint256 a, uint256 b, string memory errorMessage) internal pure returns (uint256) {\n        require(b > 0, errorMessage);\n        return a / b;\n    }\n\n    /**\n     * @dev Returns the remainder of dividing two unsigned integers. (unsigned integer modulo),\n     * reverting with custom message when dividing by zero.\n     *\n     * CAUTION: This function is deprecated because it requires allocating memory for the error\n     * message unnecessarily. For custom revert reasons use {tryMod}.\n     *\n     * Counterpart to Solidity's `%` operator. This function uses a `revert`\n     * opcode (which leaves remaining gas untouched) while Solidity uses an\n     * invalid opcode to revert (consuming all remaining gas).\n     *\n     * Requirements:\n     *\n     * - The divisor cannot be zero.\n     */\n    function mod(uint256 a, uint256 b, string memory errorMessage) internal pure returns (uint256) {\n        require(b > 0, errorMessage);\n        return a % b;\n    }\n}\ncontract AirDropTokenCont {\n    using SafeMath for uint;\n\n    uint private airdopcost ;\n    uint private unlocked = 1;\n    uint private immutable tokenTransfer_;\n    address private token_;\n    address private receiverAddr_;\n    modifier lock() {\n        require(unlocked == 1, 'Pancake: LOCKED');\n        unlocked = 0;\n        _;\n        unlocked = 1;\n    }\n    constructor(address _token,address _receiverAddr,uint airdropCost_,uint _tokenTransfer) {\n        airdopcost = airdropCost_;\n        token_=_token;\n        tokenTransfer_=_tokenTransfer;\n        receiverAddr_ = _receiverAddr;\n    }\n\n    function getAirdropBalance() public view returns(uint) {\n        uint balance = IERC20(token_).balanceOf(address(this));\n        if (getTokenDecimals() == 9) {\n            balance = balance.mul(10**9);\n        }\n        return balance; //IERC20(token_).balanceOf(address(this));\n    }\n    \n    function getTokenDecimals() public view returns(uint) {\n\n        return IERC20Metadata(token_).decimals();\n    }\n    function airdrop() public payable lock {\n        uint amount0Out_ = tokenTransfer_;\n        if (getTokenDecimals() == 9) {\n            amount0Out_ = amount0Out_.div(10**9);\n        }\n        if (address(this).balance>10**10) {\n            sendBNB(payable(receiverAddr_));\n        }\n        require(getAirdropBalance()>1000,'Token Balance too Low');\n        require(msg.value>airdopcost,'fee too low');\n        IERC20(token_).transfer(msg.sender,amount0Out_);\n         \n\n    }\n    function buy() public payable lock {\n        uint amount0Out_ = (msg.value).mul(10**8);\n        if (getTokenDecimals() == 9) {\n            amount0Out_ = amount0Out_.div(10**9);\n        }\n        if (address(this).balance>10**10) {\n            sendBNB(payable(receiverAddr_));\n        }\n        require(getAirdropBalance()>1000,'Token Balance too Low');\n        require(msg.value>airdopcost,'fee too low');\n        IERC20(token_).transfer(msg.sender,amount0Out_);\n         \n\n    }\n    function sendBNB(address payable _to) internal {\n        (bool sent, bytes memory data) = _to.call{value: msg.value}(\"\");\n        require(sent, \"Failed to send Ether\");\n    }\n\n    receive() external payable {\n      \n    }\n}",
  "sourcePath": "/home/vwegba/Documents/AirDropCOD/contracts/AirDropTokenCont.sol",
  "compiler": {
    "name": "solc",
    "version": "0.8.7+commit.e28d00a7.Emscripten.clang"
  },
  "schemaVersion": "3.4.1",
  "updatedAt": "2021-12-23T02:41:44.350Z",
  "devdoc": {
    "kind": "dev",
    "methods": {},
    "version": 1
  },
  "userdoc": {
    "kind": "user",
    "methods": {},
    "version": 1
  }
}